{
  "_format": "hh-sol-artifact-1",
  "contractName": "Certificate",
  "sourceName": "contracts/Certificate.sol",
  "abi": [
    {
      "inputs": [],
      "stateMutability": "nonpayable",
      "type": "constructor"
    },
    {
      "inputs": [],
      "name": "checkIfStudentRegistered",
      "outputs": [
        {
          "internalType": "bool",
          "name": "",
          "type": "bool"
        }
      ],
      "stateMutability": "view",
      "type": "function"
    },
    {
      "inputs": [
        {
          "internalType": "string",
          "name": "uuid",
          "type": "string"
        }
      ],
      "name": "getHashedVal",
      "outputs": [
        {
          "internalType": "string",
          "name": "",
          "type": "string"
        }
      ],
      "stateMutability": "view",
      "type": "function"
    },
    {
      "inputs": [],
      "name": "getOrgDetails",
      "outputs": [
        {
          "components": [
            {
              "internalType": "address",
              "name": "organizationAddress",
              "type": "address"
            },
            {
              "internalType": "string",
              "name": "organizationName",
              "type": "string"
            },
            {
              "internalType": "string",
              "name": "organizationEmail",
              "type": "string"
            },
            {
              "internalType": "uint256",
              "name": "requestCount",
              "type": "uint256"
            }
          ],
          "internalType": "struct Certificate.Organization",
          "name": "",
          "type": "tuple"
        }
      ],
      "stateMutability": "nonpayable",
      "type": "function"
    },
    {
      "inputs": [],
      "name": "getOrganizations",
      "outputs": [
        {
          "components": [
            {
              "internalType": "address",
              "name": "organizationAddress",
              "type": "address"
            },
            {
              "internalType": "string",
              "name": "organizationName",
              "type": "string"
            },
            {
              "internalType": "string",
              "name": "organizationEmail",
              "type": "string"
            },
            {
              "internalType": "uint256",
              "name": "requestCount",
              "type": "uint256"
            }
          ],
          "internalType": "struct Certificate.Organization[]",
          "name": "",
          "type": "tuple[]"
        }
      ],
      "stateMutability": "view",
      "type": "function"
    },
    {
      "inputs": [],
      "name": "getRequests",
      "outputs": [
        {
          "components": [
            {
              "internalType": "string",
              "name": "requestId",
              "type": "string"
            },
            {
              "internalType": "address",
              "name": "studentAddress",
              "type": "address"
            },
            {
              "internalType": "address",
              "name": "organizationAddress",
              "type": "address"
            },
            {
              "internalType": "string",
              "name": "uuid",
              "type": "string"
            },
            {
              "internalType": "string",
              "name": "title",
              "type": "string"
            },
            {
              "internalType": "string",
              "name": "description",
              "type": "string"
            },
            {
              "internalType": "string",
              "name": "requestType",
              "type": "string"
            },
            {
              "internalType": "uint256",
              "name": "initTime",
              "type": "uint256"
            },
            {
              "internalType": "uint256",
              "name": "closeTime",
              "type": "uint256"
            },
            {
              "internalType": "int256",
              "name": "status",
              "type": "int256"
            },
            {
              "internalType": "string",
              "name": "department",
              "type": "string"
            },
            {
              "internalType": "string",
              "name": "comment",
              "type": "string"
            }
          ],
          "internalType": "struct Certificate.Request[]",
          "name": "",
          "type": "tuple[]"
        }
      ],
      "stateMutability": "view",
      "type": "function"
    },
    {
      "inputs": [],
      "name": "getStudentDetails",
      "outputs": [
        {
          "components": [
            {
              "internalType": "address",
              "name": "studentAddress",
              "type": "address"
            },
            {
              "internalType": "string",
              "name": "studentName",
              "type": "string"
            },
            {
              "internalType": "string",
              "name": "studentId",
              "type": "string"
            },
            {
              "internalType": "string",
              "name": "studentEmail",
              "type": "string"
            },
            {
              "internalType": "string",
              "name": "studentMobile",
              "type": "string"
            },
            {
              "internalType": "uint256",
              "name": "requestCount",
              "type": "uint256"
            }
          ],
          "internalType": "struct Certificate.Student",
          "name": "",
          "type": "tuple"
        }
      ],
      "stateMutability": "view",
      "type": "function"
    },
    {
      "inputs": [],
      "name": "getStudentRequests",
      "outputs": [
        {
          "components": [
            {
              "internalType": "string",
              "name": "requestId",
              "type": "string"
            },
            {
              "internalType": "address",
              "name": "studentAddress",
              "type": "address"
            },
            {
              "internalType": "address",
              "name": "organizationAddress",
              "type": "address"
            },
            {
              "internalType": "string",
              "name": "uuid",
              "type": "string"
            },
            {
              "internalType": "string",
              "name": "title",
              "type": "string"
            },
            {
              "internalType": "string",
              "name": "description",
              "type": "string"
            },
            {
              "internalType": "string",
              "name": "requestType",
              "type": "string"
            },
            {
              "internalType": "uint256",
              "name": "initTime",
              "type": "uint256"
            },
            {
              "internalType": "uint256",
              "name": "closeTime",
              "type": "uint256"
            },
            {
              "internalType": "int256",
              "name": "status",
              "type": "int256"
            },
            {
              "internalType": "string",
              "name": "department",
              "type": "string"
            },
            {
              "internalType": "string",
              "name": "comment",
              "type": "string"
            }
          ],
          "internalType": "struct Certificate.Request[]",
          "name": "",
          "type": "tuple[]"
        }
      ],
      "stateMutability": "view",
      "type": "function"
    },
    {
      "inputs": [
        {
          "internalType": "address",
          "name": "org_addr",
          "type": "address"
        },
        {
          "internalType": "string",
          "name": "req_uuid",
          "type": "string"
        },
        {
          "internalType": "string",
          "name": "title",
          "type": "string"
        },
        {
          "internalType": "string",
          "name": "desc",
          "type": "string"
        },
        {
          "internalType": "string",
          "name": "reqType",
          "type": "string"
        },
        {
          "internalType": "uint256",
          "name": "initTime",
          "type": "uint256"
        },
        {
          "internalType": "string",
          "name": "dept",
          "type": "string"
        }
      ],
      "name": "regRequest",
      "outputs": [],
      "stateMutability": "nonpayable",
      "type": "function"
    },
    {
      "inputs": [
        {
          "internalType": "string",
          "name": "orgName",
          "type": "string"
        },
        {
          "internalType": "string",
          "name": "orgMail",
          "type": "string"
        }
      ],
      "name": "registerOrg",
      "outputs": [],
      "stateMutability": "nonpayable",
      "type": "function"
    },
    {
      "inputs": [
        {
          "internalType": "string",
          "name": "studentName1",
          "type": "string"
        },
        {
          "internalType": "string",
          "name": "studentId1",
          "type": "string"
        },
        {
          "internalType": "string",
          "name": "studentEmail1",
          "type": "string"
        },
        {
          "internalType": "string",
          "name": "studentMobile1",
          "type": "string"
        }
      ],
      "name": "registerStudent",
      "outputs": [],
      "stateMutability": "nonpayable",
      "type": "function"
    },
    {
      "inputs": [
        {
          "internalType": "string",
          "name": "reqId",
          "type": "string"
        },
        {
          "internalType": "string",
          "name": "cid",
          "type": "string"
        },
        {
          "internalType": "int256",
          "name": "updatedStatus",
          "type": "int256"
        },
        {
          "internalType": "string",
          "name": "uuid",
          "type": "string"
        },
        {
          "internalType": "uint256",
          "name": "timeNow",
          "type": "uint256"
        },
        {
          "internalType": "string",
          "name": "comment",
          "type": "string"
        }
      ],
      "name": "updateStatus",
      "outputs": [],
      "stateMutability": "nonpayable",
      "type": "function"
    }
  ],
  "bytecode": "0x608060405234801561001057600080fd5b50336000806101000a81548173ffffffffffffffffffffffffffffffffffffffff021916908373ffffffffffffffffffffffffffffffffffffffff1602179055506000600381905550613378806100686000396000f3fe608060405234801561001057600080fd5b50600436106100a95760003560e01c80638813ce12116100715780638813ce121461013e57806389e82b611461015c5780639754a3a81461018c578063b63eb716146101aa578063bc658659146101c6578063cdaca6b2146101e4576100a9565b806305dd400c146100ae57806343ecb677146100ca57806359ab9071146100e8578063639f761a146101045780637263829214610122575b600080fd5b6100c860048036038101906100c39190612416565b610202565b005b6100d26103c8565b6040516100df91906125d1565b60405180910390f35b61010260048036038101906100fd91906125f3565b6105a9565b005b61010c6106e4565b60405161011991906128d3565b60405180910390f35b61013c6004803603810190610137919061294d565b610d68565b005b610146610e4f565b60405161015391906128d3565b60405180910390f35b61017660048036038101906101719190612a4a565b61167b565b6040516101839190612add565b60405180910390f35b61019461172b565b6040516101a19190612c2b565b60405180910390f35b6101c460048036038101906101bf9190612c79565b611981565b005b6101ce611dc5565b6040516101db9190612e45565b60405180910390f35b6101ec6120ca565b6040516101f99190612e82565b60405180910390f35b600060405180608001604052803373ffffffffffffffffffffffffffffffffffffffff16815260200184815260200183815260200160008152509050600281908060018154018082558091505060019003906000526020600020906004020160009091909190915060008201518160000160006101000a81548173ffffffffffffffffffffffffffffffffffffffff021916908373ffffffffffffffffffffffffffffffffffffffff16021790555060208201518160010190816102c691906130a9565b5060408201518160020190816102dc91906130a9565b5060608201518160030155505080600560003373ffffffffffffffffffffffffffffffffffffffff1673ffffffffffffffffffffffffffffffffffffffff16815260200190815260200160002060008201518160000160006101000a81548173ffffffffffffffffffffffffffffffffffffffff021916908373ffffffffffffffffffffffffffffffffffffffff160217905550602082015181600101908161038591906130a9565b50604082015181600201908161039b91906130a9565b50606082015181600301559050506001600360008282546103bc91906131aa565b92505081905550505050565b6103d06121a5565b6000600560003373ffffffffffffffffffffffffffffffffffffffff1673ffffffffffffffffffffffffffffffffffffffff1681526020019081526020016000206040518060800160405290816000820160009054906101000a900473ffffffffffffffffffffffffffffffffffffffff1673ffffffffffffffffffffffffffffffffffffffff1673ffffffffffffffffffffffffffffffffffffffff16815260200160018201805461048290612ecc565b80601f01602080910402602001604051908101604052809291908181526020018280546104ae90612ecc565b80156104fb5780601f106104d0576101008083540402835291602001916104fb565b820191906000526020600020905b8154815290600101906020018083116104de57829003601f168201915b5050505050815260200160028201805461051490612ecc565b80601f016020809104026020016040519081016040528092919081815260200182805461054090612ecc565b801561058d5780601f106105625761010080835404028352916020019161058d565b820191906000526020600020905b81548152906001019060200180831161057057829003601f168201915b5050505050815260200160038201548152505090508091505090565b60006040518060c001604052803373ffffffffffffffffffffffffffffffffffffffff1681526020018681526020018581526020018481526020018381526020016000815250905080600460003373ffffffffffffffffffffffffffffffffffffffff1673ffffffffffffffffffffffffffffffffffffffff16815260200190815260200160002060008201518160000160006101000a81548173ffffffffffffffffffffffffffffffffffffffff021916908373ffffffffffffffffffffffffffffffffffffffff160217905550602082015181600101908161068d91906130a9565b5060408201518160020190816106a391906130a9565b5060608201518160030190816106b991906130a9565b5060808201518160040190816106cf91906130a9565b5060a082015181600501559050505050505050565b60606000600460003373ffffffffffffffffffffffffffffffffffffffff1673ffffffffffffffffffffffffffffffffffffffff1681526020019081526020016000206005015467ffffffffffffffff811115610744576107436122eb565b5b60405190808252806020026020018201604052801561077d57816020015b61076a6121e3565b8152602001906001900390816107625790505b5090506000805b600180549050811015610d5f573373ffffffffffffffffffffffffffffffffffffffff16600182815481106107bc576107bb6131de565b5b90600052602060002090600c020160010160009054906101000a900473ffffffffffffffffffffffffffffffffffffffff1673ffffffffffffffffffffffffffffffffffffffff1603610d4c5760066001828154811061081f5761081e6131de565b5b90600052602060002090600c020160000160405161083d919061329b565b90815260200160405180910390206040518061018001604052908160008201805461086790612ecc565b80601f016020809104026020016040519081016040528092919081815260200182805461089390612ecc565b80156108e05780601f106108b5576101008083540402835291602001916108e0565b820191906000526020600020905b8154815290600101906020018083116108c357829003601f168201915b505050505081526020016001820160009054906101000a900473ffffffffffffffffffffffffffffffffffffffff1673ffffffffffffffffffffffffffffffffffffffff1673ffffffffffffffffffffffffffffffffffffffff1681526020016002820160009054906101000a900473ffffffffffffffffffffffffffffffffffffffff1673ffffffffffffffffffffffffffffffffffffffff1673ffffffffffffffffffffffffffffffffffffffff1681526020016003820180546109a590612ecc565b80601f01602080910402602001604051908101604052809291908181526020018280546109d190612ecc565b8015610a1e5780601f106109f357610100808354040283529160200191610a1e565b820191906000526020600020905b815481529060010190602001808311610a0157829003601f168201915b50505050508152602001600482018054610a3790612ecc565b80601f0160208091040260200160405190810160405280929190818152602001828054610a6390612ecc565b8015610ab05780601f10610a8557610100808354040283529160200191610ab0565b820191906000526020600020905b815481529060010190602001808311610a9357829003601f168201915b50505050508152602001600582018054610ac990612ecc565b80601f0160208091040260200160405190810160405280929190818152602001828054610af590612ecc565b8015610b425780601f10610b1757610100808354040283529160200191610b42565b820191906000526020600020905b815481529060010190602001808311610b2557829003601f168201915b50505050508152602001600682018054610b5b90612ecc565b80601f0160208091040260200160405190810160405280929190818152602001828054610b8790612ecc565b8015610bd45780601f10610ba957610100808354040283529160200191610bd4565b820191906000526020600020905b815481529060010190602001808311610bb757829003601f168201915b50505050508152602001600782015481526020016008820154815260200160098201548152602001600a82018054610c0b90612ecc565b80601f0160208091040260200160405190810160405280929190818152602001828054610c3790612ecc565b8015610c845780601f10610c5957610100808354040283529160200191610c84565b820191906000526020600020905b815481529060010190602001808311610c6757829003601f168201915b50505050508152602001600b82018054610c9d90612ecc565b80601f0160208091040260200160405190810160405280929190818152602001828054610cc990612ecc565b8015610d165780601f10610ceb57610100808354040283529160200191610d16565b820191906000526020600020905b815481529060010190602001808311610cf957829003601f168201915b505050505081525050838381518110610d3257610d316131de565b5b60200260200101819052508180610d48906132b2565b9250505b8080610d57906132b2565b915050610784565b50819250505090565b83600687604051610d79919061332b565b90815260200160405180910390206009018190555082600687604051610d9f919061332b565b90815260200160405180910390206003019081610dbc91906130a9565b5081600687604051610dce919061332b565b90815260200160405180910390206008018190555060028403610e185784600784604051610dfc919061332b565b90815260200160405180910390209081610e1691906130a9565b505b80600687604051610e29919061332b565b9081526020016040518091039020600b019081610e4691906130a9565b50505050505050565b60606000600560003373ffffffffffffffffffffffffffffffffffffffff1673ffffffffffffffffffffffffffffffffffffffff16815260200190815260200160002060030154905060008167ffffffffffffffff811115610eb457610eb36122eb565b5b604051908082528060200260200182016040528015610eed57816020015b610eda6121e3565b815260200190600190039081610ed25790505b5090506000805b60018054905081101561167157600060018281548110610f1757610f166131de565b5b90600052602060002090600c02016000018054610f3390612ecc565b80601f0160208091040260200160405190810160405280929190818152602001828054610f5f90612ecc565b8015610fac5780601f10610f8157610100808354040283529160200191610fac565b820191906000526020600020905b815481529060010190602001808311610f8f57829003601f168201915b505050505090503373ffffffffffffffffffffffffffffffffffffffff16600682604051610fda919061332b565b908152602001604051809103902060020160009054906101000a900473ffffffffffffffffffffffffffffffffffffffff1673ffffffffffffffffffffffffffffffffffffffff160361165d576000604051806101800160405280600684604051611045919061332b565b9081526020016040518091039020600001805461106190612ecc565b80601f016020809104026020016040519081016040528092919081815260200182805461108d90612ecc565b80156110da5780601f106110af576101008083540402835291602001916110da565b820191906000526020600020905b8154815290600101906020018083116110bd57829003601f168201915b505050505081526020016006846040516110f4919061332b565b908152602001604051809103902060010160009054906101000a900473ffffffffffffffffffffffffffffffffffffffff1673ffffffffffffffffffffffffffffffffffffffff168152602001600684604051611151919061332b565b908152602001604051809103902060020160009054906101000a900473ffffffffffffffffffffffffffffffffffffffff1673ffffffffffffffffffffffffffffffffffffffff1681526020016006846040516111ae919061332b565b908152602001604051809103902060030180546111ca90612ecc565b80601f01602080910402602001604051908101604052809291908181526020018280546111f690612ecc565b80156112435780601f1061121857610100808354040283529160200191611243565b820191906000526020600020905b81548152906001019060200180831161122657829003601f168201915b5050505050815260200160068460405161125d919061332b565b9081526020016040518091039020600401805461127990612ecc565b80601f01602080910402602001604051908101604052809291908181526020018280546112a590612ecc565b80156112f25780601f106112c7576101008083540402835291602001916112f2565b820191906000526020600020905b8154815290600101906020018083116112d557829003601f168201915b5050505050815260200160068460405161130c919061332b565b9081526020016040518091039020600501805461132890612ecc565b80601f016020809104026020016040519081016040528092919081815260200182805461135490612ecc565b80156113a15780601f10611376576101008083540402835291602001916113a1565b820191906000526020600020905b81548152906001019060200180831161138457829003601f168201915b505050505081526020016006846040516113bb919061332b565b908152602001604051809103902060060180546113d790612ecc565b80601f016020809104026020016040519081016040528092919081815260200182805461140390612ecc565b80156114505780601f1061142557610100808354040283529160200191611450565b820191906000526020600020905b81548152906001019060200180831161143357829003601f168201915b5050505050815260200160068460405161146a919061332b565b9081526020016040518091039020600701548152602001600684604051611491919061332b565b90815260200160405180910390206008015481526020016006846040516114b8919061332b565b90815260200160405180910390206009015481526020016006846040516114df919061332b565b9081526020016040518091039020600a0180546114fb90612ecc565b80601f016020809104026020016040519081016040528092919081815260200182805461152790612ecc565b80156115745780601f1061154957610100808354040283529160200191611574565b820191906000526020600020905b81548152906001019060200180831161155757829003601f168201915b5050505050815260200160068460405161158e919061332b565b9081526020016040518091039020600b0180546115aa90612ecc565b80601f01602080910402602001604051908101604052809291908181526020018280546115d690612ecc565b80156116235780601f106115f857610100808354040283529160200191611623565b820191906000526020600020905b81548152906001019060200180831161160657829003601f168201915b5050505050815250905080858581518110611641576116406131de565b5b602002602001018190525060018461165991906131aa565b9350505b508080611669906132b2565b915050610ef4565b5081935050505090565b606060078260405161168d919061332b565b908152602001604051809103902080546116a690612ecc565b80601f01602080910402602001604051908101604052809291908181526020018280546116d290612ecc565b801561171f5780601f106116f45761010080835404028352916020019161171f565b820191906000526020600020905b81548152906001019060200180831161170257829003601f168201915b50505050509050919050565b6060600060035467ffffffffffffffff81111561174b5761174a6122eb565b5b60405190808252806020026020018201604052801561178457816020015b6117716121a5565b8152602001906001900390816117695790505b50905060005b60028054905081101561197957600281815481106117ab576117aa6131de565b5b90600052602060002090600402016040518060800160405290816000820160009054906101000a900473ffffffffffffffffffffffffffffffffffffffff1673ffffffffffffffffffffffffffffffffffffffff1673ffffffffffffffffffffffffffffffffffffffff16815260200160018201805461182a90612ecc565b80601f016020809104026020016040519081016040528092919081815260200182805461185690612ecc565b80156118a35780601f10611878576101008083540402835291602001916118a3565b820191906000526020600020905b81548152906001019060200180831161188657829003601f168201915b505050505081526020016002820180546118bc90612ecc565b80601f01602080910402602001604051908101604052809291908181526020018280546118e890612ecc565b80156119355780601f1061190a57610100808354040283529160200191611935565b820191906000526020600020905b81548152906001019060200180831161191857829003601f168201915b5050505050815260200160038201548152505082828151811061195b5761195a6131de565b5b60200260200101819052508080611971906132b2565b91505061178a565b508091505090565b60006040518061018001604052808881526020013373ffffffffffffffffffffffffffffffffffffffff1681526020018973ffffffffffffffffffffffffffffffffffffffff16815260200160405180602001604052806000815250815260200187815260200186815260200185815260200184815260200160008152602001600181526020018381526020016040518060200160405280600081525081525090506001600460003373ffffffffffffffffffffffffffffffffffffffff1673ffffffffffffffffffffffffffffffffffffffff1681526020019081526020016000206005016000828254611a7691906131aa565b9250508190555060018190806001815401808255809150506001900390600052602060002090600c02016000909190919091506000820151816000019081611abe91906130a9565b5060208201518160010160006101000a81548173ffffffffffffffffffffffffffffffffffffffff021916908373ffffffffffffffffffffffffffffffffffffffff16021790555060408201518160020160006101000a81548173ffffffffffffffffffffffffffffffffffffffff021916908373ffffffffffffffffffffffffffffffffffffffff1602179055506060820151816003019081611b6291906130a9565b506080820151816004019081611b7891906130a9565b5060a0820151816005019081611b8e91906130a9565b5060c0820151816006019081611ba491906130a9565b5060e082015181600701556101008201518160080155610120820151816009015561014082015181600a019081611bdb91906130a9565b5061016082015181600b019081611bf291906130a9565b5050506001600560008a73ffffffffffffffffffffffffffffffffffffffff1673ffffffffffffffffffffffffffffffffffffffff1681526020019081526020016000206003016000828254611c4891906131aa565b9250508190555080600688604051611c60919061332b565b90815260200160405180910390206000820151816000019081611c8391906130a9565b5060208201518160010160006101000a81548173ffffffffffffffffffffffffffffffffffffffff021916908373ffffffffffffffffffffffffffffffffffffffff16021790555060408201518160020160006101000a81548173ffffffffffffffffffffffffffffffffffffffff021916908373ffffffffffffffffffffffffffffffffffffffff1602179055506060820151816003019081611d2791906130a9565b506080820151816004019081611d3d91906130a9565b5060a0820151816005019081611d5391906130a9565b5060c0820151816006019081611d6991906130a9565b5060e082015181600701556101008201518160080155610120820151816009015561014082015181600a019081611da091906130a9565b5061016082015181600b019081611db791906130a9565b509050505050505050505050565b611dcd612270565b6000600460003373ffffffffffffffffffffffffffffffffffffffff1673ffffffffffffffffffffffffffffffffffffffff1681526020019081526020016000206040518060c00160405290816000820160009054906101000a900473ffffffffffffffffffffffffffffffffffffffff1673ffffffffffffffffffffffffffffffffffffffff1673ffffffffffffffffffffffffffffffffffffffff168152602001600182018054611e7f90612ecc565b80601f0160208091040260200160405190810160405280929190818152602001828054611eab90612ecc565b8015611ef85780601f10611ecd57610100808354040283529160200191611ef8565b820191906000526020600020905b815481529060010190602001808311611edb57829003601f168201915b50505050508152602001600282018054611f1190612ecc565b80601f0160208091040260200160405190810160405280929190818152602001828054611f3d90612ecc565b8015611f8a5780601f10611f5f57610100808354040283529160200191611f8a565b820191906000526020600020905b815481529060010190602001808311611f6d57829003601f168201915b50505050508152602001600382018054611fa390612ecc565b80601f0160208091040260200160405190810160405280929190818152602001828054611fcf90612ecc565b801561201c5780601f10611ff15761010080835404028352916020019161201c565b820191906000526020600020905b815481529060010190602001808311611fff57829003601f168201915b5050505050815260200160048201805461203590612ecc565b80601f016020809104026020016040519081016040528092919081815260200182805461206190612ecc565b80156120ae5780601f10612083576101008083540402835291602001916120ae565b820191906000526020600020905b81548152906001019060200180831161209157829003601f168201915b5050505050815260200160058201548152505090508091505090565b600080600460003373ffffffffffffffffffffffffffffffffffffffff1673ffffffffffffffffffffffffffffffffffffffff168152602001908152602001600020600101805461211a90612ecc565b80601f016020809104026020016040519081016040528092919081815260200182805461214690612ecc565b80156121935780601f1061216857610100808354040283529160200191612193565b820191906000526020600020905b81548152906001019060200180831161217657829003601f168201915b50505050509050600081511491505090565b6040518060800160405280600073ffffffffffffffffffffffffffffffffffffffff1681526020016060815260200160608152602001600081525090565b60405180610180016040528060608152602001600073ffffffffffffffffffffffffffffffffffffffff168152602001600073ffffffffffffffffffffffffffffffffffffffff1681526020016060815260200160608152602001606081526020016060815260200160008152602001600081526020016000815260200160608152602001606081525090565b6040518060c00160405280600073ffffffffffffffffffffffffffffffffffffffff16815260200160608152602001606081526020016060815260200160608152602001600081525090565b6000604051905090565b600080fd5b600080fd5b600080fd5b600080fd5b6000601f19601f8301169050919050565b7f4e487b7100000000000000000000000000000000000000000000000000000000600052604160045260246000fd5b612323826122da565b810181811067ffffffffffffffff82111715612342576123416122eb565b5b80604052505050565b60006123556122bc565b9050612361828261231a565b919050565b600067ffffffffffffffff821115612381576123806122eb565b5b61238a826122da565b9050602081019050919050565b82818337600083830152505050565b60006123b96123b484612366565b61234b565b9050828152602081018484840111156123d5576123d46122d5565b5b6123e0848285612397565b509392505050565b600082601f8301126123fd576123fc6122d0565b5b813561240d8482602086016123a6565b91505092915050565b6000806040838503121561242d5761242c6122c6565b5b600083013567ffffffffffffffff81111561244b5761244a6122cb565b5b612457858286016123e8565b925050602083013567ffffffffffffffff811115612478576124776122cb565b5b612484858286016123e8565b9150509250929050565b600073ffffffffffffffffffffffffffffffffffffffff82169050919050565b60006124b98261248e565b9050919050565b6124c9816124ae565b82525050565b600081519050919050565b600082825260208201905092915050565b60005b838110156125095780820151818401526020810190506124ee565b60008484015250505050565b6000612520826124cf565b61252a81856124da565b935061253a8185602086016124eb565b612543816122da565b840191505092915050565b6000819050919050565b6125618161254e565b82525050565b600060808301600083015161257f60008601826124c0565b50602083015184820360208601526125978282612515565b915050604083015184820360408601526125b18282612515565b91505060608301516125c66060860182612558565b508091505092915050565b600060208201905081810360008301526125eb8184612567565b905092915050565b6000806000806080858703121561260d5761260c6122c6565b5b600085013567ffffffffffffffff81111561262b5761262a6122cb565b5b612637878288016123e8565b945050602085013567ffffffffffffffff811115612658576126576122cb565b5b612664878288016123e8565b935050604085013567ffffffffffffffff811115612685576126846122cb565b5b612691878288016123e8565b925050606085013567ffffffffffffffff8111156126b2576126b16122cb565b5b6126be878288016123e8565b91505092959194509250565b600081519050919050565b600082825260208201905092915050565b6000819050602082019050919050565b6000819050919050565b612709816126f6565b82525050565b600061018083016000830151848203600086015261272d8282612515565b915050602083015161274260208601826124c0565b50604083015161275560408601826124c0565b506060830151848203606086015261276d8282612515565b915050608083015184820360808601526127878282612515565b91505060a083015184820360a08601526127a18282612515565b91505060c083015184820360c08601526127bb8282612515565b91505060e08301516127d060e0860182612558565b506101008301516127e5610100860182612558565b506101208301516127fa610120860182612700565b506101408301518482036101408601526128148282612515565b9150506101608301518482036101608601526128308282612515565b9150508091505092915050565b6000612849838361270f565b905092915050565b6000602082019050919050565b6000612869826126ca565b61287381856126d5565b935083602082028501612885856126e6565b8060005b858110156128c157848403895281516128a2858261283d565b94506128ad83612851565b925060208a01995050600181019050612889565b50829750879550505050505092915050565b600060208201905081810360008301526128ed818461285e565b905092915050565b6128fe816126f6565b811461290957600080fd5b50565b60008135905061291b816128f5565b92915050565b61292a8161254e565b811461293557600080fd5b50565b60008135905061294781612921565b92915050565b60008060008060008060c0878903121561296a576129696122c6565b5b600087013567ffffffffffffffff811115612988576129876122cb565b5b61299489828a016123e8565b965050602087013567ffffffffffffffff8111156129b5576129b46122cb565b5b6129c189828a016123e8565b95505060406129d289828a0161290c565b945050606087013567ffffffffffffffff8111156129f3576129f26122cb565b5b6129ff89828a016123e8565b9350506080612a1089828a01612938565b92505060a087013567ffffffffffffffff811115612a3157612a306122cb565b5b612a3d89828a016123e8565b9150509295509295509295565b600060208284031215612a6057612a5f6122c6565b5b600082013567ffffffffffffffff811115612a7e57612a7d6122cb565b5b612a8a848285016123e8565b91505092915050565b600082825260208201905092915050565b6000612aaf826124cf565b612ab98185612a93565b9350612ac98185602086016124eb565b612ad2816122da565b840191505092915050565b60006020820190508181036000830152612af78184612aa4565b905092915050565b600081519050919050565b600082825260208201905092915050565b6000819050602082019050919050565b6000608083016000830151612b4360008601826124c0565b5060208301518482036020860152612b5b8282612515565b91505060408301518482036040860152612b758282612515565b9150506060830151612b8a6060860182612558565b508091505092915050565b6000612ba18383612b2b565b905092915050565b6000602082019050919050565b6000612bc182612aff565b612bcb8185612b0a565b935083602082028501612bdd85612b1b565b8060005b85811015612c195784840389528151612bfa8582612b95565b9450612c0583612ba9565b925060208a01995050600181019050612be1565b50829750879550505050505092915050565b60006020820190508181036000830152612c458184612bb6565b905092915050565b612c56816124ae565b8114612c6157600080fd5b50565b600081359050612c7381612c4d565b92915050565b600080600080600080600060e0888a031215612c9857612c976122c6565b5b6000612ca68a828b01612c64565b975050602088013567ffffffffffffffff811115612cc757612cc66122cb565b5b612cd38a828b016123e8565b965050604088013567ffffffffffffffff811115612cf457612cf36122cb565b5b612d008a828b016123e8565b955050606088013567ffffffffffffffff811115612d2157612d206122cb565b5b612d2d8a828b016123e8565b945050608088013567ffffffffffffffff811115612d4e57612d4d6122cb565b5b612d5a8a828b016123e8565b93505060a0612d6b8a828b01612938565b92505060c088013567ffffffffffffffff811115612d8c57612d8b6122cb565b5b612d988a828b016123e8565b91505092959891949750929550565b600060c083016000830151612dbf60008601826124c0565b5060208301518482036020860152612dd78282612515565b91505060408301518482036040860152612df18282612515565b91505060608301518482036060860152612e0b8282612515565b91505060808301518482036080860152612e258282612515565b91505060a0830151612e3a60a0860182612558565b508091505092915050565b60006020820190508181036000830152612e5f8184612da7565b905092915050565b60008115159050919050565b612e7c81612e67565b82525050565b6000602082019050612e976000830184612e73565b92915050565b7f4e487b7100000000000000000000000000000000000000000000000000000000600052602260045260246000fd5b60006002820490506001821680612ee457607f821691505b602082108103612ef757612ef6612e9d565b5b50919050565b60008190508160005260206000209050919050565b60006020601f8301049050919050565b600082821b905092915050565b600060088302612f5f7fffffffffffffffffffffffffffffffffffffffffffffffffffffffffffffffff82612f22565b612f698683612f22565b95508019841693508086168417925050509392505050565b6000819050919050565b6000612fa6612fa1612f9c8461254e565b612f81565b61254e565b9050919050565b6000819050919050565b612fc083612f8b565b612fd4612fcc82612fad565b848454612f2f565b825550505050565b600090565b612fe9612fdc565b612ff4818484612fb7565b505050565b5b818110156130185761300d600082612fe1565b600181019050612ffa565b5050565b601f82111561305d5761302e81612efd565b61303784612f12565b81016020851015613046578190505b61305a61305285612f12565b830182612ff9565b50505b505050565b600082821c905092915050565b600061308060001984600802613062565b1980831691505092915050565b6000613099838361306f565b9150826002028217905092915050565b6130b2826124cf565b67ffffffffffffffff8111156130cb576130ca6122eb565b5b6130d58254612ecc565b6130e082828561301c565b600060209050601f8311600181146131135760008415613101578287015190505b61310b858261308d565b865550613173565b601f19841661312186612efd565b60005b8281101561314957848901518255600182019150602085019450602081019050613124565b868310156131665784890151613162601f89168261306f565b8355505b6001600288020188555050505b505050505050565b7f4e487b7100000000000000000000000000000000000000000000000000000000600052601160045260246000fd5b60006131b58261254e565b91506131c08361254e565b92508282019050808211156131d8576131d761317b565b5b92915050565b7f4e487b7100000000000000000000000000000000000000000000000000000000600052603260045260246000fd5b600081905092915050565b6000815461322581612ecc565b61322f818661320d565b9450600182166000811461324a576001811461325f57613292565b60ff1983168652811515820286019350613292565b61326885612efd565b60005b8381101561328a5781548189015260018201915060208101905061326b565b838801955050505b50505092915050565b60006132a78284613218565b915081905092915050565b60006132bd8261254e565b91507fffffffffffffffffffffffffffffffffffffffffffffffffffffffffffffffff82036132ef576132ee61317b565b5b600182019050919050565b6000613305826124cf565b61330f818561320d565b935061331f8185602086016124eb565b80840191505092915050565b600061333782846132fa565b91508190509291505056fea2646970667358221220d28c5c7c7718a967ed35fa04737bda275f8a0fa4e593672986341c86dad144eb64736f6c63430008110033",
  "linkReferences": {},
  "deployedLinkReferences": {}
}